{
  "contractName": "Prescription",
  "abi": [
    {
      "anonymous": false,
      "inputs": [
        {
          "indexed": true,
          "internalType": "bytes32",
          "name": "zkProofHash",
          "type": "bytes32"
        },
        {
          "indexed": false,
          "internalType": "uint256",
          "name": "expiration",
          "type": "uint256"
        }
      ],
      "name": "PrescriptionIssued",
      "type": "event"
    },
    {
      "anonymous": false,
      "inputs": [
        {
          "indexed": true,
          "internalType": "bytes32",
          "name": "zkProofHash",
          "type": "bytes32"
        },
        {
          "indexed": false,
          "internalType": "bool",
          "name": "valid",
          "type": "bool"
        }
      ],
      "name": "PrescriptionVerified",
      "type": "event"
    },
    {
      "inputs": [
        {
          "internalType": "bytes32",
          "name": "",
          "type": "bytes32"
        }
      ],
      "name": "prescriptions",
      "outputs": [
        {
          "internalType": "uint256",
          "name": "expiration",
          "type": "uint256"
        },
        {
          "internalType": "bool",
          "name": "used",
          "type": "bool"
        }
      ],
      "stateMutability": "view",
      "type": "function",
      "constant": true
    },
    {
      "inputs": [
        {
          "internalType": "bytes32",
          "name": "zkProofHash",
          "type": "bytes32"
        },
        {
          "internalType": "uint256",
          "name": "expiration",
          "type": "uint256"
        }
      ],
      "name": "issuePrescription",
      "outputs": [],
      "stateMutability": "nonpayable",
      "type": "function"
    },
    {
      "inputs": [
        {
          "internalType": "bytes32",
          "name": "zkProofHash",
          "type": "bytes32"
        }
      ],
      "name": "isValidPrescription",
      "outputs": [
        {
          "internalType": "bool",
          "name": "",
          "type": "bool"
        }
      ],
      "stateMutability": "view",
      "type": "function",
      "constant": true
    },
    {
      "inputs": [
        {
          "internalType": "bytes32",
          "name": "zkProofHash",
          "type": "bytes32"
        }
      ],
      "name": "usePrescription",
      "outputs": [],
      "stateMutability": "nonpayable",
      "type": "function"
    }
  ],
  "bytecode": "0x608060405234801561001057600080fd5b5061058f806100206000396000f3fe608060405234801561001057600080fd5b506004361061004c5760003560e01c80633c62e32d14610051578063466cec1c1461006d5780637b464e931461009d57806393075108146100ce575b600080fd5b61006b6004803603810190610066919061031e565b6100ea565b005b6100876004803603810190610082919061031e565b61019c565b6040516100949190610366565b60405180910390f35b6100b760048036038101906100b2919061031e565b6101dd565b6040516100c592919061039a565b60405180910390f35b6100e860048036038101906100e391906103ef565b61020e565b005b6100f38161019c565b610132576040517f08c379a0000000000000000000000000000000000000000000000000000000008152600401610129906104b2565b60405180910390fd5b600160008083815260200190815260200160002060010160006101000a81548160ff021916908315150217905550807f96f40abc1f44175dd6c70d58145167553a409feccb938b90e7fb73b883018f1460016040516101919190610366565b60405180910390a250565b60008060008084815260200190815260200160002090504281600001541180156101d557508060010160009054906101000a900460ff16155b915050919050565b60006020528060005260406000206000915090508060000154908060010160009054906101000a900460ff16905082565b428111610250576040517f08c379a00000000000000000000000000000000000000000000000000000000081526004016102479061051e565b60405180910390fd5b6040518060400160405280828152602001600015158152506000808481526020019081526020016000206000820151816000015560208201518160010160006101000a81548160ff021916908315150217905550905050817f3f63e155acab20a6ac7e155496eaf74d3e8c31fc9bf74078361791aa1e2f7071826040516102d7919061053e565b60405180910390a25050565b600080fd5b6000819050919050565b6102fb816102e8565b811461030657600080fd5b50565b600081359050610318816102f2565b92915050565b600060208284031215610334576103336102e3565b5b600061034284828501610309565b91505092915050565b60008115159050919050565b6103608161034b565b82525050565b600060208201905061037b6000830184610357565b92915050565b6000819050919050565b61039481610381565b82525050565b60006040820190506103af600083018561038b565b6103bc6020830184610357565b9392505050565b6103cc81610381565b81146103d757600080fd5b50565b6000813590506103e9816103c3565b92915050565b60008060408385031215610406576104056102e3565b5b600061041485828601610309565b9250506020610425858286016103da565b9150509250929050565b600082825260208201905092915050565b7f507265736372697074696f6e20697320696e76616c6964206f7220657870697260008201527f6564000000000000000000000000000000000000000000000000000000000000602082015250565b600061049c60228361042f565b91506104a782610440565b604082019050919050565b600060208201905081810360008301526104cb8161048f565b9050919050565b7f45787069726174696f6e206d75737420626520696e2074686520667574757265600082015250565b600061050860208361042f565b9150610513826104d2565b602082019050919050565b60006020820190508181036000830152610537816104fb565b9050919050565b6000602082019050610553600083018461038b565b9291505056fea26469706673582212206ea4a4dae45e98e1da0906ccdd3adae4c240430ac0a2f5a34c2efdfa9a62424664736f6c63430008130033",
  "immutableReferences": {},
  "source": "// SPDX-License-Identifier: MIT\npragma solidity ^0.8.0;\n\ncontract Prescription {\n    struct PrescriptionData {\n        uint expiration;\n        bool used;\n    }\n\n    mapping(bytes32 => PrescriptionData) public prescriptions;\n\n    event PrescriptionIssued(bytes32 indexed zkProofHash, uint expiration);\n    event PrescriptionVerified(bytes32 indexed zkProofHash, bool valid);\n\n    function issuePrescription(bytes32 zkProofHash, uint expiration) public {\n        require(expiration > block.timestamp, \"Expiration must be in the future\");\n        prescriptions[zkProofHash] = PrescriptionData(expiration, false);\n        emit PrescriptionIssued(zkProofHash, expiration);\n    }\n\n    function isValidPrescription(bytes32 zkProofHash) public view returns (bool) {\n        PrescriptionData storage pres = prescriptions[zkProofHash];\n        return (pres.expiration > block.timestamp && !pres.used);\n    }\n\n    function usePrescription(bytes32 zkProofHash) public {\n        require(isValidPrescription(zkProofHash), \"Prescription is invalid or expired\");\n        prescriptions[zkProofHash].used = true;\n        emit PrescriptionVerified(zkProofHash, true);\n    }\n}\n",
  "sourcePath": "/Users/pradyumnasharma/Desktop/hack5.0/contracts/Prescription.sol",
  "compiler": {
    "name": "solc",
    "version": "0.8.19+commit.7dd6d404.Emscripten.clang"
  },
  "schemaVersion": "3.4.16",
  "updatedAt": "2025-03-18T10:53:00.126Z",
  "networkType": "ethereum",
  "devdoc": {
    "kind": "dev",
    "methods": {},
    "version": 1
  },
  "userdoc": {
    "kind": "user",
    "methods": {},
    "version": 1
  }
}