{
  "contractName": "Prescription",
  "abi": [
    {
      "inputs": [
        {
          "internalType": "string",
          "name": "_proof",
          "type": "string"
        },
        {
          "components": [
            {
              "internalType": "string",
              "name": "doctorLicense",
              "type": "string"
            },
            {
              "internalType": "string",
              "name": "patientName",
              "type": "string"
            },
            {
              "internalType": "uint256",
              "name": "patientAge",
              "type": "uint256"
            },
            {
              "internalType": "uint256",
              "name": "patientWeight",
              "type": "uint256"
            },
            {
              "internalType": "string",
              "name": "medicalHistory",
              "type": "string"
            },
            {
              "internalType": "string",
              "name": "patientID",
              "type": "string"
            },
            {
              "internalType": "string",
              "name": "medicine",
              "type": "string"
            },
            {
              "internalType": "string",
              "name": "dosage",
              "type": "string"
            },
            {
              "internalType": "uint256",
              "name": "tablets",
              "type": "uint256"
            },
            {
              "internalType": "string",
              "name": "expiryDate",
              "type": "string"
            },
            {
              "internalType": "string",
              "name": "datePrescribed",
              "type": "string"
            },
            {
              "internalType": "bool",
              "name": "isDispensed",
              "type": "bool"
            }
          ],
          "internalType": "struct Prescription.PrescriptionData",
          "name": "_data",
          "type": "tuple"
        }
      ],
      "name": "storePrescription",
      "outputs": [],
      "stateMutability": "nonpayable",
      "type": "function"
    },
    {
      "inputs": [
        {
          "internalType": "string",
          "name": "_proof",
          "type": "string"
        }
      ],
      "name": "getPrescription",
      "outputs": [
        {
          "internalType": "string",
          "name": "",
          "type": "string"
        },
        {
          "internalType": "string",
          "name": "",
          "type": "string"
        },
        {
          "internalType": "uint256",
          "name": "",
          "type": "uint256"
        },
        {
          "internalType": "uint256",
          "name": "",
          "type": "uint256"
        },
        {
          "internalType": "string",
          "name": "",
          "type": "string"
        },
        {
          "internalType": "string",
          "name": "",
          "type": "string"
        },
        {
          "internalType": "string",
          "name": "",
          "type": "string"
        },
        {
          "internalType": "string",
          "name": "",
          "type": "string"
        },
        {
          "internalType": "uint256",
          "name": "",
          "type": "uint256"
        },
        {
          "internalType": "string",
          "name": "",
          "type": "string"
        },
        {
          "internalType": "string",
          "name": "",
          "type": "string"
        },
        {
          "internalType": "bool",
          "name": "",
          "type": "bool"
        }
      ],
      "stateMutability": "view",
      "type": "function",
      "constant": true
    },
    {
      "inputs": [
        {
          "internalType": "string",
          "name": "_proof",
          "type": "string"
        }
      ],
      "name": "dispensePrescription",
      "outputs": [],
      "stateMutability": "nonpayable",
      "type": "function"
    }
  ],
  "bytecode": "0x608060405234801561001057600080fd5b5061111c806100206000396000f3fe608060405234801561001057600080fd5b50600436106100415760003560e01c80632b21e808146100465780635990e11d14610081578063fd2db2b61461009d575b600080fd5b610060600480360381019061005b91906108eb565b6100b9565b6040516100789c9b9a999897969594939291906109e7565b60405180910390f35b61009b60048036038101906100969190610d3d565b61062a565b005b6100b760048036038101906100b291906108eb565b610754565b005b606080600080606080606080600060608060008060008e6040516100dd9190610df1565b90815260200160405180910390206040518061018001604052908160008201805461010790610e37565b80601f016020809104026020016040519081016040528092919081815260200182805461013390610e37565b80156101805780601f1061015557610100808354040283529160200191610180565b820191906000526020600020905b81548152906001019060200180831161016357829003601f168201915b5050505050815260200160018201805461019990610e37565b80601f01602080910402602001604051908101604052809291908181526020018280546101c590610e37565b80156102125780601f106101e757610100808354040283529160200191610212565b820191906000526020600020905b8154815290600101906020018083116101f557829003601f168201915b50505050508152602001600282015481526020016003820154815260200160048201805461023f90610e37565b80601f016020809104026020016040519081016040528092919081815260200182805461026b90610e37565b80156102b85780601f1061028d576101008083540402835291602001916102b8565b820191906000526020600020905b81548152906001019060200180831161029b57829003601f168201915b505050505081526020016005820180546102d190610e37565b80601f01602080910402602001604051908101604052809291908181526020018280546102fd90610e37565b801561034a5780601f1061031f5761010080835404028352916020019161034a565b820191906000526020600020905b81548152906001019060200180831161032d57829003601f168201915b5050505050815260200160068201805461036390610e37565b80601f016020809104026020016040519081016040528092919081815260200182805461038f90610e37565b80156103dc5780601f106103b1576101008083540402835291602001916103dc565b820191906000526020600020905b8154815290600101906020018083116103bf57829003601f168201915b505050505081526020016007820180546103f590610e37565b80601f016020809104026020016040519081016040528092919081815260200182805461042190610e37565b801561046e5780601f106104435761010080835404028352916020019161046e565b820191906000526020600020905b81548152906001019060200180831161045157829003601f168201915b505050505081526020016008820154815260200160098201805461049190610e37565b80601f01602080910402602001604051908101604052809291908181526020018280546104bd90610e37565b801561050a5780601f106104df5761010080835404028352916020019161050a565b820191906000526020600020905b8154815290600101906020018083116104ed57829003601f168201915b50505050508152602001600a8201805461052390610e37565b80601f016020809104026020016040519081016040528092919081815260200182805461054f90610e37565b801561059c5780601f106105715761010080835404028352916020019161059c565b820191906000526020600020905b81548152906001019060200180831161057f57829003601f168201915b50505050508152602001600b820160009054906101000a900460ff1615151515815250509050806000015181602001518260400151836060015184608001518560a001518660c001518760e001518861010001518961012001518a61014001518b61016001519c509c509c509c509c509c509c509c509c509c509c509c505091939597999b5091939597999b565b6000816101600190151590811515815250508060008360405161064d9190610df1565b908152602001604051809103902060008201518160000190816106709190611014565b5060208201518160010190816106869190611014565b50604082015181600201556060820151816003015560808201518160040190816106b09190611014565b5060a08201518160050190816106c69190611014565b5060c08201518160060190816106dc9190611014565b5060e08201518160070190816106f29190611014565b5061010082015181600801556101208201518160090190816107149190611014565b5061014082015181600a01908161072b9190611014565b5061016082015181600b0160006101000a81548160ff0219169083151502179055509050505050565b60016000826040516107669190610df1565b9081526020016040518091039020600b0160006101000a81548160ff02191690831515021790555050565b6000604051905090565b600080fd5b600080fd5b600080fd5b600080fd5b6000601f19601f8301169050919050565b7f4e487b7100000000000000000000000000000000000000000000000000000000600052604160045260246000fd5b6107f8826107af565b810181811067ffffffffffffffff82111715610817576108166107c0565b5b80604052505050565b600061082a610791565b905061083682826107ef565b919050565b600067ffffffffffffffff821115610856576108556107c0565b5b61085f826107af565b9050602081019050919050565b82818337600083830152505050565b600061088e6108898461083b565b610820565b9050828152602081018484840111156108aa576108a96107aa565b5b6108b584828561086c565b509392505050565b600082601f8301126108d2576108d16107a5565b5b81356108e284826020860161087b565b91505092915050565b6000602082840312156109015761090061079b565b5b600082013567ffffffffffffffff81111561091f5761091e6107a0565b5b61092b848285016108bd565b91505092915050565b600081519050919050565b600082825260208201905092915050565b60005b8381101561096e578082015181840152602081019050610953565b60008484015250505050565b600061098582610934565b61098f818561093f565b935061099f818560208601610950565b6109a8816107af565b840191505092915050565b6000819050919050565b6109c6816109b3565b82525050565b60008115159050919050565b6109e1816109cc565b82525050565b6000610180820190508181036000830152610a02818f61097a565b90508181036020830152610a16818e61097a565b9050610a25604083018d6109bd565b610a32606083018c6109bd565b8181036080830152610a44818b61097a565b905081810360a0830152610a58818a61097a565b905081810360c0830152610a6c818961097a565b905081810360e0830152610a80818861097a565b9050610a906101008301876109bd565b818103610120830152610aa3818661097a565b9050818103610140830152610ab8818561097a565b9050610ac86101608301846109d8565b9d9c50505050505050505050505050565b600080fd5b600080fd5b610aec816109b3565b8114610af757600080fd5b50565b600081359050610b0981610ae3565b92915050565b610b18816109cc565b8114610b2357600080fd5b50565b600081359050610b3581610b0f565b92915050565b60006101808284031215610b5257610b51610ad9565b5b610b5d610180610820565b9050600082013567ffffffffffffffff811115610b7d57610b7c610ade565b5b610b89848285016108bd565b600083015250602082013567ffffffffffffffff811115610bad57610bac610ade565b5b610bb9848285016108bd565b6020830152506040610bcd84828501610afa565b6040830152506060610be184828501610afa565b606083015250608082013567ffffffffffffffff811115610c0557610c04610ade565b5b610c11848285016108bd565b60808301525060a082013567ffffffffffffffff811115610c3557610c34610ade565b5b610c41848285016108bd565b60a08301525060c082013567ffffffffffffffff811115610c6557610c64610ade565b5b610c71848285016108bd565b60c08301525060e082013567ffffffffffffffff811115610c9557610c94610ade565b5b610ca1848285016108bd565b60e083015250610100610cb684828501610afa565b6101008301525061012082013567ffffffffffffffff811115610cdc57610cdb610ade565b5b610ce8848285016108bd565b6101208301525061014082013567ffffffffffffffff811115610d0e57610d0d610ade565b5b610d1a848285016108bd565b61014083015250610160610d3084828501610b26565b6101608301525092915050565b60008060408385031215610d5457610d5361079b565b5b600083013567ffffffffffffffff811115610d7257610d716107a0565b5b610d7e858286016108bd565b925050602083013567ffffffffffffffff811115610d9f57610d9e6107a0565b5b610dab85828601610b3b565b9150509250929050565b600081905092915050565b6000610dcb82610934565b610dd58185610db5565b9350610de5818560208601610950565b80840191505092915050565b6000610dfd8284610dc0565b915081905092915050565b7f4e487b7100000000000000000000000000000000000000000000000000000000600052602260045260246000fd5b60006002820490506001821680610e4f57607f821691505b602082108103610e6257610e61610e08565b5b50919050565b60008190508160005260206000209050919050565b60006020601f8301049050919050565b600082821b905092915050565b600060088302610eca7fffffffffffffffffffffffffffffffffffffffffffffffffffffffffffffffff82610e8d565b610ed48683610e8d565b95508019841693508086168417925050509392505050565b6000819050919050565b6000610f11610f0c610f07846109b3565b610eec565b6109b3565b9050919050565b6000819050919050565b610f2b83610ef6565b610f3f610f3782610f18565b848454610e9a565b825550505050565b600090565b610f54610f47565b610f5f818484610f22565b505050565b5b81811015610f8357610f78600082610f4c565b600181019050610f65565b5050565b601f821115610fc857610f9981610e68565b610fa284610e7d565b81016020851015610fb1578190505b610fc5610fbd85610e7d565b830182610f64565b50505b505050565b600082821c905092915050565b6000610feb60001984600802610fcd565b1980831691505092915050565b60006110048383610fda565b9150826002028217905092915050565b61101d82610934565b67ffffffffffffffff811115611036576110356107c0565b5b6110408254610e37565b61104b828285610f87565b600060209050601f83116001811461107e576000841561106c578287015190505b6110768582610ff8565b8655506110de565b601f19841661108c86610e68565b60005b828110156110b45784890151825560018201915060208501945060208101905061108f565b868310156110d157848901516110cd601f891682610fda565b8355505b6001600288020188555050505b50505050505056fea2646970667358221220f4d5849481fa3ba23aeb88db19e7e01def65ba343edf8e6339c745df06a064d064736f6c63430008130033",
  "immutableReferences": {},
  "source": "// SPDX-License-Identifier: MIT\npragma solidity ^0.8.19;\n\ncontract Prescription {\n\n    // Holds all relevant prescription data\n    struct PrescriptionData {\n        string doctorLicense;\n        string patientName;\n        uint patientAge;\n        uint patientWeight;\n        string medicalHistory;\n        string patientID;\n        string medicine;\n        string dosage;\n        uint tablets;\n        string expiryDate;\n        string datePrescribed;\n        bool isDispensed;\n    }\n\n    // Maps a ZK proof (or unique ID string) to the PrescriptionData\n    mapping(string => PrescriptionData) private prescriptions;\n\n    /**\n     * @dev Stores a new prescription by proof.\n     * @param _proof The ZK Proof or unique prescription ID (string).\n     * @param _data A struct containing all prescription details.\n     *              The 'isDispensed' field will be overridden to false.\n     */\n    function storePrescription(string memory _proof, PrescriptionData memory _data) public {\n        // Force the prescription to start as not dispensed\n        _data.isDispensed = false;\n        prescriptions[_proof] = _data;\n    }\n\n    /**\n     * @dev Retrieves the prescription details by proof.\n     * @param _proof The ZK Proof or unique prescription ID (string).\n     */\n    function getPrescription(string memory _proof)\n        public\n        view\n        returns (\n            string memory,\n            string memory,\n            uint,\n            uint,\n            string memory,\n            string memory,\n            string memory,\n            string memory,\n            uint,\n            string memory,\n            string memory,\n            bool\n        )\n    {\n        PrescriptionData memory p = prescriptions[_proof];\n        return (\n            p.doctorLicense,\n            p.patientName,\n            p.patientAge,\n            p.patientWeight,\n            p.medicalHistory,\n            p.patientID,\n            p.medicine,\n            p.dosage,\n            p.tablets,\n            p.expiryDate,\n            p.datePrescribed,\n            p.isDispensed\n        );\n    }\n\n    /**\n     * @dev Marks a prescription as dispensed (pharmacist calls this).\n     * @param _proof The ZK Proof or unique prescription ID (string).\n     */\n    function dispensePrescription(string memory _proof) public {\n        prescriptions[_proof].isDispensed = true;\n    }\n}\n",
  "sourcePath": "/Users/pradyumnasharma/Desktop/hack5.0/contracts/Prescription.sol",
  "compiler": {
    "name": "solc",
    "version": "0.8.19+commit.7dd6d404.Emscripten.clang"
  },
  "schemaVersion": "3.4.16",
  "updatedAt": "2025-03-20T07:13:22.032Z",
  "networkType": "ethereum",
  "devdoc": {
    "kind": "dev",
    "methods": {
      "dispensePrescription(string)": {
        "details": "Marks a prescription as dispensed (pharmacist calls this).",
        "params": {
          "_proof": "The ZK Proof or unique prescription ID (string)."
        }
      },
      "getPrescription(string)": {
        "details": "Retrieves the prescription details by proof.",
        "params": {
          "_proof": "The ZK Proof or unique prescription ID (string)."
        }
      },
      "storePrescription(string,(string,string,uint256,uint256,string,string,string,string,uint256,string,string,bool))": {
        "details": "Stores a new prescription by proof.",
        "params": {
          "_data": "A struct containing all prescription details.              The 'isDispensed' field will be overridden to false.",
          "_proof": "The ZK Proof or unique prescription ID (string)."
        }
      }
    },
    "version": 1
  },
  "userdoc": {
    "kind": "user",
    "methods": {},
    "version": 1
  }
}