{
  "contractName": "Prescription",
  "abi": [
    {
      "anonymous": false,
      "inputs": [
        {
          "indexed": true,
          "internalType": "address",
          "name": "doctor",
          "type": "address"
        },
        {
          "indexed": true,
          "internalType": "bytes32",
          "name": "zkProofHash",
          "type": "bytes32"
        },
        {
          "indexed": false,
          "internalType": "uint256",
          "name": "expiryTimestamp",
          "type": "uint256"
        }
      ],
      "name": "PrescriptionIssued",
      "type": "event"
    },
    {
      "anonymous": false,
      "inputs": [
        {
          "indexed": true,
          "internalType": "bytes32",
          "name": "zkProofHash",
          "type": "bytes32"
        },
        {
          "indexed": true,
          "internalType": "address",
          "name": "pharmacy",
          "type": "address"
        }
      ],
      "name": "PrescriptionUsed",
      "type": "event"
    },
    {
      "inputs": [
        {
          "internalType": "bytes32",
          "name": "",
          "type": "bytes32"
        }
      ],
      "name": "prescriptions",
      "outputs": [
        {
          "internalType": "address",
          "name": "doctor",
          "type": "address"
        },
        {
          "internalType": "bytes32",
          "name": "zkProofHash",
          "type": "bytes32"
        },
        {
          "internalType": "uint256",
          "name": "expiryTimestamp",
          "type": "uint256"
        },
        {
          "internalType": "bool",
          "name": "isUsed",
          "type": "bool"
        }
      ],
      "stateMutability": "view",
      "type": "function",
      "constant": true
    },
    {
      "inputs": [
        {
          "internalType": "bytes32",
          "name": "_zkProofHash",
          "type": "bytes32"
        },
        {
          "internalType": "uint256",
          "name": "_expiryTimestamp",
          "type": "uint256"
        }
      ],
      "name": "issuePrescription",
      "outputs": [],
      "stateMutability": "nonpayable",
      "type": "function"
    },
    {
      "inputs": [
        {
          "internalType": "bytes32",
          "name": "_zkProofHash",
          "type": "bytes32"
        }
      ],
      "name": "verifyAndUsePrescription",
      "outputs": [
        {
          "internalType": "bool",
          "name": "",
          "type": "bool"
        }
      ],
      "stateMutability": "nonpayable",
      "type": "function"
    },
    {
      "inputs": [
        {
          "internalType": "bytes32",
          "name": "_zkProofHash",
          "type": "bytes32"
        }
      ],
      "name": "isValidPrescription",
      "outputs": [
        {
          "internalType": "bool",
          "name": "",
          "type": "bool"
        }
      ],
      "stateMutability": "view",
      "type": "function",
      "constant": true
    }
  ],
  "bytecode": "0x608060405234801561001057600080fd5b50610a09806100206000396000f3fe608060405234801561001057600080fd5b506004361061004c5760003560e01c8063466cec1c146100515780637b464e931461008157806393075108146100b4578063c39dc428146100d0575b600080fd5b61006b600480360381019061006691906105e8565b610100565b6040516100789190610630565b60405180910390f35b61009b600480360381019061009691906105e8565b61019f565b6040516100ab94939291906106b4565b60405180910390f35b6100ce60048036038101906100c99190610725565b6101fc565b005b6100ea60048036038101906100e591906105e8565b6103ff565b6040516100f79190610630565b60405180910390f35b6000806000808481526020019081526020016000209050600073ffffffffffffffffffffffffffffffffffffffff168160000160009054906101000a900473ffffffffffffffffffffffffffffffffffffffff1673ffffffffffffffffffffffffffffffffffffffff161415801561018757508060030160009054906101000a900460ff16155b8015610197575080600201544211155b915050919050565b60006020528060005260406000206000915090508060000160009054906101000a900473ffffffffffffffffffffffffffffffffffffffff16908060010154908060020154908060030160009054906101000a900460ff16905084565b42811161023e576040517f08c379a0000000000000000000000000000000000000000000000000000000008152600401610235906107e8565b60405180910390fd5b600073ffffffffffffffffffffffffffffffffffffffff1660008084815260200190815260200160002060000160009054906101000a900473ffffffffffffffffffffffffffffffffffffffff1673ffffffffffffffffffffffffffffffffffffffff16146102e2576040517f08c379a00000000000000000000000000000000000000000000000000000000081526004016102d990610854565b60405180910390fd5b60405180608001604052803373ffffffffffffffffffffffffffffffffffffffff1681526020018381526020018281526020016000151581525060008084815260200190815260200160002060008201518160000160006101000a81548173ffffffffffffffffffffffffffffffffffffffff021916908373ffffffffffffffffffffffffffffffffffffffff160217905550602082015181600101556040820151816002015560608201518160030160006101000a81548160ff021916908315150217905550905050813373ffffffffffffffffffffffffffffffffffffffff167fe19338722a440c82cc29b7fdd2367d3c47e2fa4102f68c1bbb8e68360fc15e81836040516103f39190610874565b60405180910390a35050565b6000806000808481526020019081526020016000209050600073ffffffffffffffffffffffffffffffffffffffff168160000160009054906101000a900473ffffffffffffffffffffffffffffffffffffffff1673ffffffffffffffffffffffffffffffffffffffff16036104a9576040517f08c379a00000000000000000000000000000000000000000000000000000000081526004016104a0906108db565b60405180910390fd5b8060030160009054906101000a900460ff16156104fb576040517f08c379a00000000000000000000000000000000000000000000000000000000081526004016104f290610947565b60405180910390fd5b8060020154421115610542576040517f08c379a0000000000000000000000000000000000000000000000000000000008152600401610539906109b3565b60405180910390fd5b60018160030160006101000a81548160ff0219169083151502179055503373ffffffffffffffffffffffffffffffffffffffff16837fd8df7b9570c66cf2847384dfe657a942da4669c10e89b91a1c51dd388aed78ed60405160405180910390a36001915050919050565b600080fd5b6000819050919050565b6105c5816105b2565b81146105d057600080fd5b50565b6000813590506105e2816105bc565b92915050565b6000602082840312156105fe576105fd6105ad565b5b600061060c848285016105d3565b91505092915050565b60008115159050919050565b61062a81610615565b82525050565b60006020820190506106456000830184610621565b92915050565b600073ffffffffffffffffffffffffffffffffffffffff82169050919050565b60006106768261064b565b9050919050565b6106868161066b565b82525050565b610695816105b2565b82525050565b6000819050919050565b6106ae8161069b565b82525050565b60006080820190506106c9600083018761067d565b6106d6602083018661068c565b6106e360408301856106a5565b6106f06060830184610621565b95945050505050565b6107028161069b565b811461070d57600080fd5b50565b60008135905061071f816106f9565b92915050565b6000806040838503121561073c5761073b6105ad565b5b600061074a858286016105d3565b925050602061075b85828601610710565b9150509250929050565b600082825260208201905092915050565b7f4578706972792064617465206d75737420626520696e2074686520667574757260008201527f6500000000000000000000000000000000000000000000000000000000000000602082015250565b60006107d2602183610765565b91506107dd82610776565b604082019050919050565b60006020820190508181036000830152610801816107c5565b9050919050565b7f507265736372697074696f6e20616c7265616479206578697374730000000000600082015250565b600061083e601b83610765565b915061084982610808565b602082019050919050565b6000602082019050818103600083015261086d81610831565b9050919050565b600060208201905061088960008301846106a5565b92915050565b7f507265736372697074696f6e20646f6573206e6f742065786973740000000000600082015250565b60006108c5601b83610765565b91506108d08261088f565b602082019050919050565b600060208201905081810360008301526108f4816108b8565b9050919050565b7f507265736372697074696f6e20616c7265616479207573656400000000000000600082015250565b6000610931601983610765565b915061093c826108fb565b602082019050919050565b6000602082019050818103600083015261096081610924565b9050919050565b7f507265736372697074696f6e2068617320657870697265640000000000000000600082015250565b600061099d601883610765565b91506109a882610967565b602082019050919050565b600060208201905081810360008301526109cc81610990565b905091905056fea26469706673582212205b340d76bf74ea138f12b52b58e8b3f8a2b9d8ca06ea9afcc35e57b128c982e564736f6c63430008130033",
  "immutableReferences": {},
  "source": "// SPDX-License-Identifier: MIT\npragma solidity ^0.8.19;\n\ncontract Prescription {\n    struct PrescriptionData {\n        address doctor;\n        bytes32 zkProofHash;\n        uint256 expiryTimestamp;\n        bool isUsed;\n    }\n\n    mapping(bytes32 => PrescriptionData) public prescriptions;\n\n    event PrescriptionIssued(address indexed doctor, bytes32 indexed zkProofHash, uint256 expiryTimestamp);\n    event PrescriptionUsed(bytes32 indexed zkProofHash, address indexed pharmacy);\n\n    //  Issue a new prescription\n    function issuePrescription(bytes32 _zkProofHash, uint256 _expiryTimestamp) external {\n        require(_expiryTimestamp > block.timestamp, \"Expiry date must be in the future\");\n        require(prescriptions[_zkProofHash].doctor == address(0), \"Prescription already exists\");\n\n        prescriptions[_zkProofHash] = PrescriptionData({\n            doctor: msg.sender,\n            zkProofHash: _zkProofHash,\n            expiryTimestamp: _expiryTimestamp,\n            isUsed: false\n        });\n\n        emit PrescriptionIssued(msg.sender, _zkProofHash, _expiryTimestamp);\n    }\n\n    //  Verify and use prescription\n    function verifyAndUsePrescription(bytes32 _zkProofHash) external returns (bool) {\n        PrescriptionData storage prescription = prescriptions[_zkProofHash];\n\n        require(prescription.doctor != address(0), \"Prescription does not exist\");\n        require(!prescription.isUsed, \"Prescription already used\");\n        require(block.timestamp <= prescription.expiryTimestamp, \"Prescription has expired\");\n\n        prescription.isUsed = true; // Mark as used\n\n        emit PrescriptionUsed(_zkProofHash, msg.sender);\n        return true;\n    }\n\n    //  Check if a prescription is valid (for frontend)\n    function isValidPrescription(bytes32 _zkProofHash) external view returns (bool) {\n        PrescriptionData storage prescription = prescriptions[_zkProofHash];\n\n        return (prescription.doctor != address(0) &&\n                !prescription.isUsed &&\n                block.timestamp <= prescription.expiryTimestamp);\n    }\n}\n",
  "sourcePath": "/Users/pradyumnasharma/Desktop/hack5.0/contracts/Prescription.sol",
  "compiler": {
    "name": "solc",
    "version": "0.8.19+commit.7dd6d404.Emscripten.clang"
  },
  "schemaVersion": "3.4.16",
  "updatedAt": "2025-03-18T10:40:20.635Z",
  "networkType": "ethereum",
  "devdoc": {
    "kind": "dev",
    "methods": {},
    "version": 1
  },
  "userdoc": {
    "kind": "user",
    "methods": {},
    "version": 1
  }
}