{
  "contractName": "Prescription",
  "abi": [
    {
      "anonymous": false,
      "inputs": [
        {
          "indexed": false,
          "internalType": "string",
          "name": "proof",
          "type": "string"
        }
      ],
      "name": "PrescriptionDispensed",
      "type": "event"
    },
    {
      "anonymous": false,
      "inputs": [
        {
          "indexed": true,
          "internalType": "address",
          "name": "doctor",
          "type": "address"
        },
        {
          "indexed": false,
          "internalType": "string",
          "name": "proof",
          "type": "string"
        },
        {
          "indexed": false,
          "internalType": "string",
          "name": "patientName",
          "type": "string"
        },
        {
          "indexed": false,
          "internalType": "string",
          "name": "medicine",
          "type": "string"
        },
        {
          "indexed": false,
          "internalType": "string",
          "name": "dosage",
          "type": "string"
        },
        {
          "indexed": false,
          "internalType": "uint256",
          "name": "tablets",
          "type": "uint256"
        },
        {
          "indexed": false,
          "internalType": "string",
          "name": "expiryDate",
          "type": "string"
        }
      ],
      "name": "PrescriptionStored",
      "type": "event"
    },
    {
      "inputs": [
        {
          "internalType": "string",
          "name": "_proof",
          "type": "string"
        },
        {
          "components": [
            {
              "internalType": "string",
              "name": "doctorLicense",
              "type": "string"
            },
            {
              "internalType": "string",
              "name": "patientName",
              "type": "string"
            },
            {
              "internalType": "uint256",
              "name": "patientAge",
              "type": "uint256"
            },
            {
              "internalType": "uint256",
              "name": "patientWeight",
              "type": "uint256"
            },
            {
              "internalType": "string",
              "name": "medicalHistory",
              "type": "string"
            },
            {
              "internalType": "string",
              "name": "patientID",
              "type": "string"
            },
            {
              "internalType": "string",
              "name": "medicine",
              "type": "string"
            },
            {
              "internalType": "string",
              "name": "dosage",
              "type": "string"
            },
            {
              "internalType": "uint256",
              "name": "tablets",
              "type": "uint256"
            },
            {
              "internalType": "string",
              "name": "expiryDate",
              "type": "string"
            },
            {
              "internalType": "string",
              "name": "datePrescribed",
              "type": "string"
            },
            {
              "internalType": "bool",
              "name": "isDispensed",
              "type": "bool"
            }
          ],
          "internalType": "struct Prescription.PrescriptionData",
          "name": "_data",
          "type": "tuple"
        }
      ],
      "name": "storePrescription",
      "outputs": [],
      "stateMutability": "nonpayable",
      "type": "function"
    },
    {
      "inputs": [
        {
          "internalType": "string",
          "name": "_proof",
          "type": "string"
        }
      ],
      "name": "getPrescription",
      "outputs": [
        {
          "components": [
            {
              "internalType": "string",
              "name": "doctorLicense",
              "type": "string"
            },
            {
              "internalType": "string",
              "name": "patientName",
              "type": "string"
            },
            {
              "internalType": "uint256",
              "name": "patientAge",
              "type": "uint256"
            },
            {
              "internalType": "uint256",
              "name": "patientWeight",
              "type": "uint256"
            },
            {
              "internalType": "string",
              "name": "medicalHistory",
              "type": "string"
            },
            {
              "internalType": "string",
              "name": "patientID",
              "type": "string"
            },
            {
              "internalType": "string",
              "name": "medicine",
              "type": "string"
            },
            {
              "internalType": "string",
              "name": "dosage",
              "type": "string"
            },
            {
              "internalType": "uint256",
              "name": "tablets",
              "type": "uint256"
            },
            {
              "internalType": "string",
              "name": "expiryDate",
              "type": "string"
            },
            {
              "internalType": "string",
              "name": "datePrescribed",
              "type": "string"
            },
            {
              "internalType": "bool",
              "name": "isDispensed",
              "type": "bool"
            }
          ],
          "internalType": "struct Prescription.PrescriptionData",
          "name": "",
          "type": "tuple"
        }
      ],
      "stateMutability": "view",
      "type": "function",
      "constant": true
    },
    {
      "inputs": [
        {
          "internalType": "string",
          "name": "_proof",
          "type": "string"
        }
      ],
      "name": "dispensePrescription",
      "outputs": [],
      "stateMutability": "nonpayable",
      "type": "function"
    }
  ],
  "bytecode": "0x608060405234801561001057600080fd5b50611772806100206000396000f3fe608060405234801561001057600080fd5b50600436106100415760003560e01c80632b21e808146100465780635990e11d14610076578063fd2db2b614610092575b600080fd5b610060600480360381019061005b9190610bc1565b6100ae565b60405161006d9190610df2565b60405180910390f35b610090600480360381019061008b9190611078565b61061f565b005b6100ac60048036038101906100a79190610bc1565b6108b2565b005b6100b6610a04565b600080836040516100c7919061112c565b908152602001604051809103902060050180546100e390611172565b905011610125576040517f08c379a000000000000000000000000000000000000000000000000000000000815260040161011c90611200565b60405180910390fd5b600082604051610135919061112c565b90815260200160405180910390206040518061018001604052908160008201805461015f90611172565b80601f016020809104026020016040519081016040528092919081815260200182805461018b90611172565b80156101d85780601f106101ad576101008083540402835291602001916101d8565b820191906000526020600020905b8154815290600101906020018083116101bb57829003601f168201915b505050505081526020016001820180546101f190611172565b80601f016020809104026020016040519081016040528092919081815260200182805461021d90611172565b801561026a5780601f1061023f5761010080835404028352916020019161026a565b820191906000526020600020905b81548152906001019060200180831161024d57829003601f168201915b50505050508152602001600282015481526020016003820154815260200160048201805461029790611172565b80601f01602080910402602001604051908101604052809291908181526020018280546102c390611172565b80156103105780601f106102e557610100808354040283529160200191610310565b820191906000526020600020905b8154815290600101906020018083116102f357829003601f168201915b5050505050815260200160058201805461032990611172565b80601f016020809104026020016040519081016040528092919081815260200182805461035590611172565b80156103a25780601f10610377576101008083540402835291602001916103a2565b820191906000526020600020905b81548152906001019060200180831161038557829003601f168201915b505050505081526020016006820180546103bb90611172565b80601f01602080910402602001604051908101604052809291908181526020018280546103e790611172565b80156104345780601f1061040957610100808354040283529160200191610434565b820191906000526020600020905b81548152906001019060200180831161041757829003601f168201915b5050505050815260200160078201805461044d90611172565b80601f016020809104026020016040519081016040528092919081815260200182805461047990611172565b80156104c65780601f1061049b576101008083540402835291602001916104c6565b820191906000526020600020905b8154815290600101906020018083116104a957829003601f168201915b50505050508152602001600882015481526020016009820180546104e990611172565b80601f016020809104026020016040519081016040528092919081815260200182805461051590611172565b80156105625780601f1061053757610100808354040283529160200191610562565b820191906000526020600020905b81548152906001019060200180831161054557829003601f168201915b50505050508152602001600a8201805461057b90611172565b80601f01602080910402602001604051908101604052809291908181526020018280546105a790611172565b80156105f45780601f106105c9576101008083540402835291602001916105f4565b820191906000526020600020905b8154815290600101906020018083116105d757829003601f168201915b50505050508152602001600b820160009054906101000a900460ff1615151515815250509050919050565b6000825111610663576040517f08c379a000000000000000000000000000000000000000000000000000000000815260040161065a9061126c565b60405180910390fd5b60008083604051610674919061112c565b9081526020016040518091039020600501805461069090611172565b9050146106d2576040517f08c379a00000000000000000000000000000000000000000000000000000000081526004016106c9906112d8565b60405180910390fd5b60008160a00151511161071a576040517f08c379a000000000000000000000000000000000000000000000000000000000815260040161071190611344565b60405180910390fd5b6000816101600190151590811515815250508060008360405161073d919061112c565b908152602001604051809103902060008201518160000190816107609190611510565b5060208201518160010190816107769190611510565b50604082015181600201556060820151816003015560808201518160040190816107a09190611510565b5060a08201518160050190816107b69190611510565b5060c08201518160060190816107cc9190611510565b5060e08201518160070190816107e29190611510565b5061010082015181600801556101208201518160090190816108049190611510565b5061014082015181600a01908161081b9190611510565b5061016082015181600b0160006101000a81548160ff0219169083151502179055509050503373ffffffffffffffffffffffffffffffffffffffff167f7d3ac2c6343f890e7b74fc5cba830cf9f9739b07f5ca296d46e16fc9810149d28383602001518460c001518560e001518661010001518761012001516040516108a69695949392919061162a565b60405180910390a25050565b600080826040516108c3919061112c565b908152602001604051809103902060050180546108df90611172565b905011610921576040517f08c379a000000000000000000000000000000000000000000000000000000000815260040161091890611200565b60405180910390fd5b600081604051610931919061112c565b9081526020016040518091039020600b0160009054906101000a900460ff1615610990576040517f08c379a0000000000000000000000000000000000000000000000000000000008152600401610987906116fa565b60405180910390fd5b60016000826040516109a2919061112c565b9081526020016040518091039020600b0160006101000a81548160ff0219169083151502179055507fffe3ce39269aa852a1cbc37791c5de09f432ea9515beb98ac86ab43219e6c7e9816040516109f9919061171a565b60405180910390a150565b60405180610180016040528060608152602001606081526020016000815260200160008152602001606081526020016060815260200160608152602001606081526020016000815260200160608152602001606081526020016000151581525090565b6000604051905090565b600080fd5b600080fd5b600080fd5b600080fd5b6000601f19601f8301169050919050565b7f4e487b7100000000000000000000000000000000000000000000000000000000600052604160045260246000fd5b610ace82610a85565b810181811067ffffffffffffffff82111715610aed57610aec610a96565b5b80604052505050565b6000610b00610a67565b9050610b0c8282610ac5565b919050565b600067ffffffffffffffff821115610b2c57610b2b610a96565b5b610b3582610a85565b9050602081019050919050565b82818337600083830152505050565b6000610b64610b5f84610b11565b610af6565b905082815260208101848484011115610b8057610b7f610a80565b5b610b8b848285610b42565b509392505050565b600082601f830112610ba857610ba7610a7b565b5b8135610bb8848260208601610b51565b91505092915050565b600060208284031215610bd757610bd6610a71565b5b600082013567ffffffffffffffff811115610bf557610bf4610a76565b5b610c0184828501610b93565b91505092915050565b600081519050919050565b600082825260208201905092915050565b60005b83811015610c44578082015181840152602081019050610c29565b60008484015250505050565b6000610c5b82610c0a565b610c658185610c15565b9350610c75818560208601610c26565b610c7e81610a85565b840191505092915050565b6000819050919050565b610c9c81610c89565b82525050565b60008115159050919050565b610cb781610ca2565b82525050565b6000610180830160008301518482036000860152610cdb8282610c50565b91505060208301518482036020860152610cf58282610c50565b9150506040830151610d0a6040860182610c93565b506060830151610d1d6060860182610c93565b5060808301518482036080860152610d358282610c50565b91505060a083015184820360a0860152610d4f8282610c50565b91505060c083015184820360c0860152610d698282610c50565b91505060e083015184820360e0860152610d838282610c50565b915050610100830151610d9a610100860182610c93565b50610120830151848203610120860152610db48282610c50565b915050610140830151848203610140860152610dd08282610c50565b915050610160830151610de7610160860182610cae565b508091505092915050565b60006020820190508181036000830152610e0c8184610cbd565b905092915050565b600080fd5b600080fd5b610e2781610c89565b8114610e3257600080fd5b50565b600081359050610e4481610e1e565b92915050565b610e5381610ca2565b8114610e5e57600080fd5b50565b600081359050610e7081610e4a565b92915050565b60006101808284031215610e8d57610e8c610e14565b5b610e98610180610af6565b9050600082013567ffffffffffffffff811115610eb857610eb7610e19565b5b610ec484828501610b93565b600083015250602082013567ffffffffffffffff811115610ee857610ee7610e19565b5b610ef484828501610b93565b6020830152506040610f0884828501610e35565b6040830152506060610f1c84828501610e35565b606083015250608082013567ffffffffffffffff811115610f4057610f3f610e19565b5b610f4c84828501610b93565b60808301525060a082013567ffffffffffffffff811115610f7057610f6f610e19565b5b610f7c84828501610b93565b60a08301525060c082013567ffffffffffffffff811115610fa057610f9f610e19565b5b610fac84828501610b93565b60c08301525060e082013567ffffffffffffffff811115610fd057610fcf610e19565b5b610fdc84828501610b93565b60e083015250610100610ff184828501610e35565b6101008301525061012082013567ffffffffffffffff81111561101757611016610e19565b5b61102384828501610b93565b6101208301525061014082013567ffffffffffffffff81111561104957611048610e19565b5b61105584828501610b93565b6101408301525061016061106b84828501610e61565b6101608301525092915050565b6000806040838503121561108f5761108e610a71565b5b600083013567ffffffffffffffff8111156110ad576110ac610a76565b5b6110b985828601610b93565b925050602083013567ffffffffffffffff8111156110da576110d9610a76565b5b6110e685828601610e76565b9150509250929050565b600081905092915050565b600061110682610c0a565b61111081856110f0565b9350611120818560208601610c26565b80840191505092915050565b600061113882846110fb565b915081905092915050565b7f4e487b7100000000000000000000000000000000000000000000000000000000600052602260045260246000fd5b6000600282049050600182168061118a57607f821691505b60208210810361119d5761119c611143565b5b50919050565b600082825260208201905092915050565b7f507265736372697074696f6e206e6f7420666f756e6400000000000000000000600082015250565b60006111ea6016836111a3565b91506111f5826111b4565b602082019050919050565b60006020820190508181036000830152611219816111dd565b9050919050565b7f496e76616c69642070726f6f6620494400000000000000000000000000000000600082015250565b60006112566010836111a3565b915061126182611220565b602082019050919050565b6000602082019050818103600083015261128581611249565b9050919050565b7f507265736372697074696f6e20616c7265616479206578697374730000000000600082015250565b60006112c2601b836111a3565b91506112cd8261128c565b602082019050919050565b600060208201905081810360008301526112f1816112b5565b9050919050565b7f496e76616c69642070617469656e742049440000000000000000000000000000600082015250565b600061132e6012836111a3565b9150611339826112f8565b602082019050919050565b6000602082019050818103600083015261135d81611321565b9050919050565b60008190508160005260206000209050919050565b60006020601f8301049050919050565b600082821b905092915050565b6000600883026113c67fffffffffffffffffffffffffffffffffffffffffffffffffffffffffffffffff82611389565b6113d08683611389565b95508019841693508086168417925050509392505050565b6000819050919050565b600061140d61140861140384610c89565b6113e8565b610c89565b9050919050565b6000819050919050565b611427836113f2565b61143b61143382611414565b848454611396565b825550505050565b600090565b611450611443565b61145b81848461141e565b505050565b5b8181101561147f57611474600082611448565b600181019050611461565b5050565b601f8211156114c45761149581611364565b61149e84611379565b810160208510156114ad578190505b6114c16114b985611379565b830182611460565b50505b505050565b600082821c905092915050565b60006114e7600019846008026114c9565b1980831691505092915050565b600061150083836114d6565b9150826002028217905092915050565b61151982610c0a565b67ffffffffffffffff81111561153257611531610a96565b5b61153c8254611172565b611547828285611483565b600060209050601f83116001811461157a5760008415611568578287015190505b61157285826114f4565b8655506115da565b601f19841661158886611364565b60005b828110156115b05784890151825560018201915060208501945060208101905061158b565b868310156115cd57848901516115c9601f8916826114d6565b8355505b6001600288020188555050505b505050505050565b60006115ed82610c0a565b6115f781856111a3565b9350611607818560208601610c26565b61161081610a85565b840191505092915050565b61162481610c89565b82525050565b600060c082019050818103600083015261164481896115e2565b9050818103602083015261165881886115e2565b9050818103604083015261166c81876115e2565b9050818103606083015261168081866115e2565b905061168f608083018561161b565b81810360a08301526116a181846115e2565b9050979650505050505050565b7f507265736372697074696f6e20616c72656164792064697370656e7365640000600082015250565b60006116e4601e836111a3565b91506116ef826116ae565b602082019050919050565b60006020820190508181036000830152611713816116d7565b9050919050565b6000602082019050818103600083015261173481846115e2565b90509291505056fea2646970667358221220c8ff9ad2bf6f38cd96fad07b090ce7ec185583035b9ae9fe5473674b5ec34e6164736f6c63430008130033",
  "immutableReferences": {},
  "source": "// SPDX-License-Identifier: MIT\npragma solidity ^0.8.19;\n\ncontract Prescription {\n    struct PrescriptionData {\n        string doctorLicense;\n        string patientName;\n        uint256 patientAge;\n        uint256 patientWeight;\n        string medicalHistory;\n        string patientID;\n        string medicine;\n        string dosage;\n        uint256 tablets;\n        string expiryDate;\n        string datePrescribed;\n        bool isDispensed;\n    }\n\n    mapping(string => PrescriptionData) private prescriptions;\n\n    event PrescriptionStored(\n        address indexed doctor, \n        string proof,\n        string patientName,\n        string medicine,\n        string dosage,\n        uint256 tablets,\n        string expiryDate\n    );\n\n    event PrescriptionDispensed(string proof);\n\n    /**\n     * @dev Stores a new prescription and emits an event.\n     */\n    function storePrescription(string memory _proof, PrescriptionData memory _data) public {\n        require(bytes(_proof).length > 0, \"Invalid proof ID\");\n        require(bytes(prescriptions[_proof].patientID).length == 0, \"Prescription already exists\");\n        require(bytes(_data.patientID).length > 0, \"Invalid patient ID\");\n\n        _data.isDispensed = false;\n        prescriptions[_proof] = _data;\n\n        //  Emit event for pharmacists to retrieve from logs\n        emit PrescriptionStored(\n            msg.sender, \n            _proof,\n            _data.patientName,\n            _data.medicine,\n            _data.dosage,\n            _data.tablets,\n            _data.expiryDate\n        );\n    }\n\n    /**\n     * @dev Retrieves a prescription.\n     */\n    function getPrescription(string memory _proof) public view returns (PrescriptionData memory) {\n        require(bytes(prescriptions[_proof].patientID).length > 0, \"Prescription not found\");\n        return prescriptions[_proof];\n    }\n\n    /**\n     * @dev Marks a prescription as dispensed.\n     */\n    function dispensePrescription(string memory _proof) public {\n        require(bytes(prescriptions[_proof].patientID).length > 0, \"Prescription not found\");\n        require(!prescriptions[_proof].isDispensed, \"Prescription already dispensed\");\n\n        prescriptions[_proof].isDispensed = true;\n        emit PrescriptionDispensed(_proof);\n    }\n}\n",
  "sourcePath": "/Users/pradyumnasharma/Desktop/hack5.0/contracts/Prescription.sol",
  "compiler": {
    "name": "solc",
    "version": "0.8.19+commit.7dd6d404.Emscripten.clang"
  },
  "schemaVersion": "3.4.16",
  "updatedAt": "2025-03-20T20:27:57.059Z",
  "networkType": "ethereum",
  "devdoc": {
    "kind": "dev",
    "methods": {
      "dispensePrescription(string)": {
        "details": "Marks a prescription as dispensed."
      },
      "getPrescription(string)": {
        "details": "Retrieves a prescription."
      },
      "storePrescription(string,(string,string,uint256,uint256,string,string,string,string,uint256,string,string,bool))": {
        "details": "Stores a new prescription and emits an event."
      }
    },
    "version": 1
  },
  "userdoc": {
    "kind": "user",
    "methods": {},
    "version": 1
  }
}